:03000000020C23CC
:100C230078FFE4F6D8FD9000007F007E20E4F0A377
:0A0C3300DFFCDEFA758135020C7853
:0B11CC00043100000000013500C102EA
:10123D00538EFE5389F0858989758CE0758A18C2A5
:08124D008DC28CD2A9D28C22C3
:03000B0002128A54
:09128A00758CE0758A18D202325D
:1011740075CF10759AFF759BFF7591FF7592FF757A
:10118400A1FF75A2FF75D9FF75DAFF7580FF759011
:0C119400FF75A0FFE4F5D8D2AF02123DB9
:1011F40090002DE030E60654BFF01212A390002DAB
:10120400E030E711547FF0120ABF8F348E338D32F1
:061214008C311212A3222E
:10121A00121174120D4875CF103002FAC202053548
:10122A00D3E535940A7480948040EBE4F5351211C5
:03123A00F480E35A
:10105A000000000000000007000A0BB8012C00C8BD
:10106A0000020000000000020064000AFFFFFFFF08
:10107A00000A033204081F0501D1033204081F05C0
:10108A0001D1033204081F0501D1033204081F05E8
:05109A0001D10A0A204B
:0B127400901064E493FE740193FF22CD
:0B127F00901068E493FE740193FF22BE
:08129300901062740193FF2228
:1011A000AD07ED75F008A42482F582E43410F583D0
:1011B000E493FEED75F008A42483F582E43410F581
:0C11C00083E4937C002400FFEC3EFE2240
:10125500EF75F008A4247FF582E43410F583E49358
:02126500FF2266
:0D12670074292FF582E43400F583E0FF22A6
:08129B00900000E0C313FF22E4
:100FC000E4FBFAF50BF50AF509F508750B0FF50AC0
:100FD000F509F508EBC3941F748094805032AF0B71
:100FE000AE0AAD09AC0878011209B28F0B8E0A8DDA
:100FF000098C0830D717740D2AF582E43400F58384
:10100000EBF00AEAC394047480948050030B80C40C
:021010008A2E26
:0110120022BB
:10114200EF14601214601414601814601A240470EE
:101152001E90107C800890107D800390107EE49396
:10116200FF22E4FF02126790106E740193FF227F48
:02117200002259
:10101300901060740193900000F090107A74019323
:10102300900030F0120FC0E4FFEFC3952E5020EF75
:1010330075F008A42480F582E43410F583E493FE6C
:1010430074292FF582E43400F583EEF00F80DAE49F
:0610530090002EF0A3F056
:011059002274
:100ABF00E4F50FF50EF50DF50C1212A65003020B0F
:100ACF0070120E438F0B8E0A8D098C08E4FBEBC35B
:100ADF00952E5047AF0BAE0AAD09AC08780112093D
:100AEF00B28F0B8E0A8D098C0830D72CE47F01FE54
:100AFF00FDFC740D2BF582E43400F583E0F9F81258
:100B0F0009C5E50F4FF50FE50E4EF50EE50D4DF549
:100B1F000DE50C4CF50C80030B80B3E4FFFEFDFCE0
:100B2F00AB0FAA0EA90DA80CC31209A1601090005B
:100B3F002FE004F0700690002EE004F08007E490A0
:100B4F00002EF0A3F0121274C390002FE09F9000BC
:100B5F002EE09E40171212A9E490002EF0A3F08011
:100B6F000B90106AE4740193FF1209D8AF0FAE0E09
:040B7F00AD0DAC0C00
:010B8300224F
:03005B0002109FF1
:10109F00C0E0C0F0C083C082C0D075D000C000C017
:1010AF0001C002C003C004C005C006C007120CBDBA
:1010BF00D007D006D005D004D003D002D001D00085
:0B10CF00D0D0D082D083D0F0D0E0322F
:1011D700410044004100420041003F0041003E0001
:0C11E70041004000410041004100430075
:100EAE00C2AF75FEC1ADFFD2AF530530EDFB7A0078
:100EBE0070047920801CEB64104A70047910801243
:100ECE00EB64204A700479088008EB64304A7002A3
:100EDE007904E924F8601224F8601424F0601624D2
:100EEE001C70187E017FF480147E037FE8800E7ED6
:100EFE00077FD080087E0F7FA08002E4F9EF4E605E
:080F0E0007EF1F70F81E80F5CB
:010F160022B8
:020B84008F1EC2
:100B8600121267900045EFF0AF1E121255EFFBE50B
:100B96002325E0FFE52233FE7C007D0A120900AD25
:100BA600037C001208EE75F002E51EA42401F5820E
:100BB600E5F03400F583E0FCA3E0C39FEC9E50090A
:100BC600900045E06056148043AF1E121255EFFBAD
:100BD600AE22AF237C007D071208EE7D0A120900C3
:100BE600AD037C001208EE75F002E51EA42401F5A3
:100BF60082E5F03400F583E0FCA3E0D39FEC9E4051
:100C06001B900045E0FF647E6012EF04FF74292507
:0C0C16001EF582E43400F583EFF0D201FB
:010C220022AF
:100CBD00C20375F002E52FA42411F582E5F034008E
:100CCD00F583E5E5F0A3E5E4F0052FD3E52E9408D3
:100CDD0074809480401CE52F952E4002801BE52EDC
:100CED00C313B52F0990002DE04440F08019D203B5
:100CFD008015E52FC3952E400CE4F52F90002DE0C7
:100D0D004480F08002D203AF2F1212557E00AC2228
:100D1D00AD231208EE8EE78FE6AF2F121267E5E2D4
:100D2D0054804FF5E2740D252FF582E43400F583E0
:0A0D3D00E04480F5E8300302D2EE36
:010D47002289
:100D480053DB7FD2AFC201E4F52F90002DF01210D3
:100D580013E4FF121142EF2401FDE433FC7E0F7F00
:100D6800A01209008E228F23E4FF1212557E00ACD8
:100D780022AD231208EE8EE78FE67F02121142EFB2
:100D8800C454F0FEC006E4FF121142D0E02FF5E192
:100D98007F04121142EF6008E5E254804480F5E2D6
:100DA8007F03121142E5E254804FF5E27F011211F0
:100DB800428FE3120F1743A91090000DE04480F50D
:070DC800E8120DCF0210DA62
:0312A300D2EE2266
:100F6C00E4FC90002DE0547FF0D2EED3E52E9408F3
:100F7C0074809480402290002DE054407011120E29
:100F8C00AE43CF100CECC394647480948040E79013
:100F9C00002DE054BFF0D2EEE4FC90002DE0548024
:100FAC007011120EAE43CF100CECC3946474809489
:030FBC008040E78B
:010FBF00220F
:100DCF0090109EE493F508120F6CE4F509E509C342
:100DDF00952E503375F002E509A42411F582E5F044
:100DEF003400F583E0FEA3E0FF75F002E509A424CB
:100DFF0001F582E5F03400F583EEF0A3EFF0AF09D3
:100E0F00120B84050980C6AF081508EF70B91211CF
:100E1F000E1212938F08120F6CE4F509E509C395B2
:100E2F002E5009AF09120755050980F0AF081508B4
:030E3F00EF70E36E
:010E4200228D
:1010DA00E4FFEFC3952E502B75F002EFA42411F50F
:1010EA0082E5F03400F583E0FCA3E0FD75F002EF41
:1010FA00A42401F582E5F03400F583ECF0A3EDF0C9
:03110A000F80CF84
:01110D0022BF
:100E4300E4F530900042F0F510E510C3952E5009FB
:100E5300AF10120755051080F0D3E52E940374806C
:100E63009480400F900042E0D394027480948050A9
:100E7300058000120100900042E06021A3E004F02D
:100E8300900000E075F004A4FF900043E0D39FE5D9
:100E9300F06480F87480984009D2018005E49000E2
:0A0EA30043F0AF27AE26AD25AC24C6
:010EAD002222
:10010000751AFFE4F51BF52DF52CF52BF52AF513E3
:10011000F514F515F516F518E518C3952E400302EC
:1001200001D675F002E518A42401F582E5F034004B
:10013000F583E0FEA3E0FF75F002E518A42411F5B5
:1001400082E5F03400F583E0FCA3E0C39FF512ECF8
:100150009EF511D3E5129400E511648094804071FE
:10016000AF181211A08E1C8F1DC3E5129514E51354
:100170006480F8E511648098401185131585141684
:1001800085111385121485181A8017C3E512951668
:10019000E5156480F8E511648098400685111585A1
:1001A0001216AE1CAF1D7C007D02120955D3E5125C
:1001B0009FEE6480F8E51164809840020530D3E535
:1001C00012951DE51C6480F8E511648098400205D5
:1001D0001B0518020118E4FFFEFDFCAB27AA26A9A7
:1001E00025A824C31209A160030202A6C3E51B943B
:1001F00004748094804015900041E004F0E52E24C2
:10020000FEFFE0D39F5003020754802BE49000418F
:10021000F0E52E14FFE530C39F402190003FE0043D
:10022000F0E490003EF0900000E014FE90003FE00B
:10023000D39E5003020754E4F0D20122E530C39F5D
:10024000502AE5309405748094804020E490003F6B
:10025000F090003EE004F0900000E0FF13FE9000FC
:100260003EE0D39E4040EFF0D200803AD3E5309498
:100270000574809480502FE490003FF090003EF091
:10028000300023900040E004F0900000E075F0089A
:10029000A4FF900040E0D39FE5F06480F87480985C
:1002A0004004E4F0C200E51AF46065AF1A1211A030
:1002B0008E1C8F1DD3E514951DE51C6480F8E51395
:1002C000648098403EE5149516FDE5139515FCE510
:1002D0001D7802CEA2E713CE13D8F8FFD3ED9FEE20
:1002E0006480F8EC648098401A751701E47F01FE81
:1002F000FDFCA91AA8011209C58F2D8E2C8D2B8CFF
:100300002A8010E4F517F52DF52CF52BF52A80033E
:10031000E4F517E517640160030203EEFFFEFDFC40
:10032000AB27AA26A925A824C31209A160030203AA
:10033000B37419251AF582E43400F583E0C394FA06
:1003400074809480500E7419251AF582E43400F5F7
:1003500083E004F0900000E030000825E025E0F59F
:10036000198002F5197419251AF582E43400F58311
:10037000E0C39519403DE527452DF527E526452C99
:10038000F526E525452BF525E524452AF524E490B9
:10039000003FF0F518E518C3952E5017E518651ABB
:1003A000600D74192518F582E43400F583E4F00536
:1003B0001880E27425251AF582E43400F583E4F010
:1003C0007409251AF582E43400F583E4F0743925C4
:1003D0001AF582E43400F583E4F075F002E51AA41E
:1003E000241DF582E5F03400F583E4F0A3F0E4F594
:1003F00018E518C3952E4003020754E51AB51809ED
:10040000E5176401700302074F75F002E518A42494
:1004100001F582E5F03400F583E0FEA3E0FF75F01E
:1004200002E518A42411F582E5F03400F583E0FC20
:10043000A3E0C39FF512EC9EF511AF181211A08E28
:100440001C8F1D900030E0FF3395E0FEC3E49FFD5C
:10045000E49EFCC3E5129DEC6480F8E5116480988D
:100460005003020550D3E5129FEE6480F8E5116455
:1004700080984003020550E4FFFEFDFCAB27AA264E
:10048000A925A824C31209A1600302067E75F00203
:10049000E518A4241DF582E5F03400F583E5118507
:1004A00012F012098B12127F75F002E518A4241DB8
:1004B000F582E5F03400F583E0FCA3E0C39FEE6431
:1004C00080F8EC648098401675F002E518A42401C9
:1004D000F582E5F03400F583E475F001803E1212F8
:1004E0007FC3E49FFFE49EFE75F002E518A4241D7F
:1004F000F582E5F03400F583E0FCA3E0C39FEE64F1
:1005000080F8EC648098502B75F002E518A4240163
:10051000F582E5F03400F58374FFF5F012098B7570
:10052000F002E518A4241DF582E5F03400F583E41B
:10053000F0A3F074252518F582E43400F583E4F087
:1005400074092518F582E43400F583E4F002067E90
:10055000900030E0FF3395E0FEC3E49FFFE49EFE91
:10056000C3E5129FEE6480F8E511648098400302B1
:1005700005FA74252518F582E43400F583E004F0CB
:1005800074252518F582E43400F583E0FD90109D74
:10059000E493FFED8FF084E5F0600302067E901097
:1005A0009C93FEEF8EF0A4FFC3ED9FE5F06480F80E
:1005B000748098401274252518F582E43400F58380
:1005C000E4F0D20102067E75F002E518A42401F5DC
:1005D00082E5F03400F583C083C082E0FEA3E0FF33
:1005E000900030E0FD3395E0FCC3EF9DFFEE9CD022
:1005F00082D083F0A3EFF002067E900030E0FBFF94
:100600003395E0FED3E5129FEE6480F8E511648037
:1006100098406BE47F01FEFDFCA918A8011209C5F2
:10062000EF5527FFEE5526FEED5525FDEC55244DE3
:100630004E4F704A74092518F582E43400F583E0C2
:1006400004F074092518F582E43400F583E0642091
:10065000702C74092518F582E43400F583E4F0EB7E
:10066000A2E713FF3395E0FE75F002E518A424011C
:10067000F582E5F03400F583EE8FF012098BE47F0C
:1006800001FEFDFCA918A8011209C5EF5527FFEED0
:100690005526FEED5525FDEC5524FC4D4E4F7003BF
:1006A00002072AAE1CE51D7802CEA2E713CE13D8AE
:1006B000F8FFC3E51D9FFFE51C9EFEC3E5129FEEFC
:1006C0006480F8E511648098503B74392518F582F0
:1006D000E43400F583E004F012129B8F197439257D
:1006E00018F582E43400F583E0C395194049743964
:1006F0002518F582E43400F583E4F0F527F526F5B6
:1007000025F524802574392518F582E43400F58315
:10071000E0D3940074809480401D74392518F582CC
:10072000E43400F583E014F0800D74192518F58287
:10073000E43400F583E4F0E4FFFEFDFCAB27AA26D9
:10074000A925A824C31209A17005AF18120B8405AE
:04075000180203F197
:010754002282
:10110E00E4FFEFC3952E502B75F002EFA42411F5DA
:10111E0082E5F03400F583E0FCA3E0FD75F002EF0C
:10112E00A42431F582E5F03400F583ECF0A3EDF064
:03113E000F80CF50
:01114100228B
:020755008F1201
:100757001211A08E138F1475F002E512A42401F56F
:1007670082E5F03400F583E0FEA3E0FF75F002E5D3
:1007770012A42411F582E5F03400F583E0FCA3E030
:10078700C39FFFEC9EAD07FCE514C4F8540FC8687F
:10079700FFE513C454F048FED3ED9FEE6480F8ECF8
:1007A7006480985014C3E49FFFE49EFEC3ED9FEE60
:1007B7006480F8EC648098503375F002E512A42445
:1007C70031F582E5F03400F583E0FEA3E0FF75F034
:1007D70002E512A42411F582E5F03400F583EEF06A
:1007E700A3EFF0900042E004F00208C375F002E5C1
:1007F70012A42431F582E5F03400F583E0FEA3E08E
:10080700FF75F002E512A42411F582E5F03400F536
:1008170083E0FCA3E0C39FFDEC9EFCE513A2E71376
:10082700FEE51413FFD3ED9FEE6480F8EC64809827
:100837005014C3E49FFFE49EFEC3ED9FEE6480F86F
:10084700EC648098501775F002E512A42411F58224
:10085700E5F03400F583E0FEA3E0FF804A75F0027F
:10086700E512A42431F582E5F03400F583E0FCA31A
:10087700E0FDAE047803CEC313CE13D8F9FFC3ED62
:100887009FFDEC9EFC75F002E512A42411F582E5AC
:10089700F03400F583E0FEA3E07803CEC313CE1354
:1008A700D8F92DFFEC3EFE75F002E512A42431F5D0
:1008B70082E5F03400F583EEF0A3EFF075F002E582
:1008C70012A42431F582E5F03400F583E0FEA3E0BD
:1008D700FF75F002E512A42411F582E5F03400F566
:0608E70083EEF0A3EFF028
:0108ED0022E8
:0312A600A2012280
:0312A900D201224D
:100F1700E4FFEFC3952E503A74192FF582E434009D
:100F2700F583E4F074252FF582E43400F583E4F0CB
:100F370074392FF582E43400F583E4F075F002EF9D
:100F4700A4241DF582E5F03400F583E4F0A3F00F47
:100F570080C0E4F527F526F525F5247521FFF5284A
:040F6700F529C201A5
:010F6B002263
:0209D8008F107E
:1009DA00900044E0C39403748094804003020AB4F4
:1009EA0090003DE004F0E0B5100612110EE4F52186
:1009FA0090003DE0D395105003020ABEE4F511E5DC
:100A0A0011C3952E506175F002E511A42431F582C7
:100A1A00E5F03400F583E0FEA3E0FF75F002E5118E
:100A2A00A42411F582E5F03400F583E0FCA3E0C3C9
:100A3A009FFFEC9EFE900030E0FD3395E0FCD3EF83
:100A4A009DEC6480F8EE6480984013E49DFDE49C7C
:100A5A00FCC3EF9DEC6480F8EE6480984009AF1106
:100A6A0012075505118098E52EC313FFE511D39F90
:100A7A0040020521E51075F008A4FF90003DE0C38F
:100A8A009FE5F06480F87480984029E4F0C20090F1
:100A9A000044E004F0E51075F004A4FFC3E5219FCB
:100AAA00E5F06480F8748098400AE4F01210DA12D3
:040ABA000F17C2014F
:010ABE002215
:100C3D0002121AE493A3F8E493A34003F68001F2A1
:100C4D0008DFF48029E493A3F85407240CC8C333B8
:100C5D00C4540F4420C8834004F456800146F6DF87
:100C6D00E4800B01020408102040809011CCE47E3A
:100C7D00019360BCA3FF543F30E509541FFEE4937C
:100C8D00A360010ECF54C025E060A840B8E493A343
:100C9D00FAE493A3F8E493A3C8C582C8CAC583CA6E
:100CAD00F0A3C8C582C8CAC583CADFE9DEE780BE26
:0111F30000FB
:1008EE00EF8DF0A4A8F0CF8CF0A428CE8DF0A42E1E
:0208FE00FE22D8
:10090000BC000BBE0029EF8DF084FFADF022E4CCDB
:10091000F875F008EF2FFFEE33FEEC33FCEE9DECA4
:10092000984005FCEE9DFE0FD5F0E9E4CEFD22EDEA
:10093000F8F5F0EE8420D21CFEADF075F008EF2F34
:10094000FFED33FD4007985006D5F0F222C398FD25
:050950000FD5F0EA22C2
:10095500C2D5EC30E709B2D5E4C39DFDE49CFCEEBD
:1009650030E715B2D5E4C39FFFE49EFE120900C32C
:10097500E49DFDE49CFC800312090030D507C3E427
:060985009FFFE49EFE222C
:10098B00C5F0F8A3E028F0C5F0F8E58215827002F7
:06099B001583E038F02294
:1009A100EB9FF5F0EA9E42F0E99D42F0E89C45F0AC
:0109B1002223
:1009B200E8600FECC313FCED13FDEE13FEEF13FF23
:0309C200D8F12247
:1009C500E8600FEFC333FFEE33FEED33FDEC33FC90
:0309D500D8F12234
:00000001FF
